:020000040000FA
:0300000002006D8E
:100013000205CB75823375831D740012007FE49053
:100023000200781379018002F0A3D8FCD9FA7A127E
:100033007B0290009D786679018015E493A3AD82DD
:10004300AE838A828B83F0A3AA82AB838D828E8355
:10005300D8E9D9E7758227758315740012007F7577
:10006300827575831D740012007F75D0007581BF82
:10007300751000751102759F00020021C09FF59F46
:10008300E473D09F22D083D082C09FE493C0E074F6
:100093000193C0E0740293F59F220000000000006A
:1000A30000000025630025642C256C642C256C64FA
:1000B3002C25642C25642C2564256425642564255E
:1000C3006425642564256425643F001F0000000047
:1000D300063B01073B02083B0308D804093B05091B
:1000E300D8060A3B070AD8080B3B090BD80A0CD8D9
:1000F300686A6C747A4C00FFFF0000000000001275
:100103000088E31900120088051B00120088211BD8
:1001130000120088A31600120088A9160012008896
:10012300C817001200882318001200883218001222
:100133000088561800120088751800120088A3184A
:1001430000120088CD1800120088021900120088DE
:100153006713001200889D13001200880814001210
:100163000088331900120088B21900120088831D19
:1001730000120088BB1B00120088E81C00120088D4
:10018300160000120088561C001200880C1C001276
:100193000088621B00120088781A001200880E1D66
:1001A30000120088571D0012008893060012008871
:1001B3006B0E00120088EC0E00120088AF120012C2
:1001C30000880C1300120088BD1C001200888E1CCE
:1001D30000C3E09608A3E09608A3E09608A3E09680
:1001E300A2D265D03322C008C3E096F50808A3E085
:1001F30096420808A3E096420808A3E0964208A2A4
:10020300D265D033E5087001D3D00822E4CFC0E033
:10021300E4CEC0E0E4CDC0E0E4CCC0E075F020E67D
:1002230026F608E633F608E633F608E633F618183A
:1002330018EC33FCED33FDEE33FEEF33FFC3EC97E5
:1002430009ED9709EE9709EF97191919400FFFEC7C
:1002530097FC09ED97FD09EE97FE191906D5F0BF36
:10026300ECF709EDF709EEF709EFF7191919D0E0E3
:10027300FCD0E0FDD0E0FED0E0FF22E4C396F60818
:10028300E496F608E496F608E496F622E056F008BB
:10029300A3E056F008A3E056F008A3E056F022E0EE
:1002A300F608A3E0F608A3E0F608A3E0F622E6F0DA
:1002B30008A3E6F008A3E6F008A3E6F022E0FCA317
:1002C300E0FDA3E0FEA3E0FF22E0F8A3E0F9A3E052
:1002D300FAA3E0FB22E8F0A3E9F0A3EAF0A3EBF032
:1002E30022CAC0E0E6F0A308DAFAD0E0FA22CAC0D4
:1002F300E0E0A3C582CCC582C583CDC583F0A3C589
:1003030082CCC582C583CDC583DAE6D0E0CA22C3D9
:10031300E498F8E499F91203538026C3E49AFAE4C3
:100323009BFBE920E7E9120353E498F8E499F922E7
:10033300C3E498F8E499F9120353E498F8E499F9BB
:10034300C3E49AFAE49BFB22EB20E7CFE920E7E042
:10035300B90010BB0008E88AF084F8AAF022E4FB95
:10036300C8FA22EB70227B10C833C8C933C9335093
:1003730007C39AC3DBF280069A50012ADBEAC8332B
:10038300F4C8C933F4C9FA2275F008E4C833C8C9FC
:1003930033C933C99AC99B5004C92AC93BD5F0EC68
:1003A300FBC833F4C8E4C9FA22251010AF08F510CE
:1003B300400C15118008F51040021511D2AF220030
:1003C300C0D0251010AF08F510500C05118008F5AA
:1003D3001050020511D2AFD0D0222510F58210AFF4
:1003E30008F510400C15118008F51040021511D2C4
:1003F300AF851183222510F582E43511F58322257B
:1004030010F8E43511F9222510FAE43511FB222501
:1004130010FCE43511FD22E4732510C582C0E0E52C
:100423001134FFC583C0E0E510C3958224F810AFF3
:10043300088583118582108008858311858210D2F7
:10044300AFCEF0A3E520F0A37808E608F0A3DEFA28
:10045300EFF0A3E58124FAF8E608F0A3E608F0A399
:10046300E608F0A30808E608F0A3E608F0A3158160
:100473001581D0E0FED0E0F8158115811581E8C023
:10048300E0EEC0E022851183851082E0A3FEE0A3A5
:10049300F5207808E0A3F608DFFAE0A3FFE0A3C0A5
:1004A300E0E0A3C0E0E0A3C0E0E0A3C0E0E0A3C0BD
:1004B300E010AF088582108583118008858210853E
:1004C3008311D2AFD083D082020085C0D02510C55E
:1004D30082C0E0E51134FFC583C0E0E510C3958217
:1004E30024F310AF0885831185821080088583115A
:1004F300858210D2AFC8F0A3E9F0A3EAF0A3EBF032
:10050300A37908E709F0A3D8FAECF0A3EDF0A3EE82
:10051300F0A3EFF0A3D0E0F0A3D0E0F0A3D0E0F09D
:10052300A3E520F0A3E5F0F0A322851183851082D3
:10053300E0C0E0A3E0F9A3E0FAA3E0FBA37808E0BE
:10054300F608A3DFFAE0FCA3E0FDA3E0FEA3E0FFCF
:10055300A3E0C0E0A3E0C0E0A3E0F5D0A3E0F52072
:10056300A3E0A3F5F010AF088583118582108008FE
:10057300858311858210D2AFD082D083D0E0F8D0AA
:10058300E0327404800474028000C0E0F4041203B7
:10059300DDD0E01202E4227404800474028000CCF3
:1005A300C0E0EDC0E0E510C39CCCAD1150011D10BF
:1005B300AF068C108D1180068C108D11D2AF1202F4
:1005C300F1D0E0FDD0E0FC22C0E074F11204CEC211
:1005D3008BAEC1EEF50875090078081205897A1B00
:1005E3007B0212018C74021203C274306E700B9082
:1005F3000200120685900200807E74316E700B90AB
:100603000202120685900202806E74326E700B90A5
:100613000204120685900204805E74336E700B90A0
:100623000206120685900206804E74346E700B909B
:100633000208120685900208803E74356E700B9096
:10064300020A12068590020A802E74366E700B9091
:10065300020C12068590020C801E74376E700B908C
:10066300020E12068590020E800E74386E700E9084
:100673000210120685900210E8F0A3E9F07F02024F
:10068300052DE0F8A3E0F97401C398F8E499F92281
:1006930074F212041C74CC1203AC8510828511838E
:1006A30012129374071203F8ECF0A3EDF074131213
:1006B30003F8E4F0A3F074421203F8E0FEA3E0FFB2
:1006C3008022740312041285108285118312125F33
:1006D3001201BC12122C5003020D738E828F83A35E
:1006E300AE82AF838E828F83E0F9700B7413120393
:1006F300F812125F020D7774256970C6740D120328
:10070300F8E4F0A3F0740F1203F8E4F0A3F074110B
:100713001203F8E4F0A3F08003740148F88E828F8B
:1007230083A3AE82AF83E0FA24E060ED24FD60167C
:1007330024F8600A24FE600A24FD600E801074020F
:1007430080D9740480D5740880D1741080CD742A44
:100753006A704F74441203F8120DC9F508A3E0F54B
:100763000974171203F8E508F0A3E509F0744412BD
:1007730003F8120DD51203F8121290C3E5091212F1
:100783002E5015C3E49508FAE49509FB7417120378
:10079300F8121293740448F88E828F83A30EAF83EA
:1007A300803374171203F8E4F0A3F0802374171254
:1007B30003F8120DC07003747F6B600B120D8C7401
:1007C300171203F81212938E828F83A3AE82AF8324
:1007D300120DB340D88E828F83E0642E600C7415A3
:1007E3001203F874FFF0A3F08069A3AE82AF83E035
:1007F300642A702C74441203F8120DC9FAA3E0FBA7
:1008030074151203F812129374441203F8120DD5DF
:100813001203F81212908E828F83A30EAF8380335C
:1008230074151203F8E4F0A3F0802374151203F88F
:10083300120DC07003747F6B600B120D8C74151254
:1008430003F81212938E828F83A3AE82AF83120DAD
:10085300B340D874191203F8E812128B8E828F8377
:10086300E0F508FC7D007A687B0212019E8B0BEA9F
:10087300450B600C74021203F8E508120E3680076C
:1008830074021203F8E4F074021203F8E0C0E07497
:100893001B1203F8D0E0F0646870138E828F83E03C
:1008A3006468700A741B1203F87462120E36741CA7
:1008B300120402740B1203F81212A98E828F83E0C2
:1008C300F50CA3AE82AF8324DB603D24CD7003021D
:1008D30009EB24F57003020BFB147003020ADC24FA
:1008E300FB7003020ADC24FA70030209EB147003A1
:1008F30002099C24FD601B24FE70030209EB24FD06
:1009030070030209EB020C29741C1203F87425020C
:100913000C1F74441203F8120E07F508A3E0F5093F
:1009230074091203F8E508F0A3E509F0744412030F
:10093300F8120E131203F81212A674151203F8E03C
:10094300F50AA3E0F50BC312122E5011AA08AB0946
:100953001201A48A088B09A808A9098030780A1211
:1009630005897C007D00AA08AB0912018674021276
:1009730003C28A0C8B0DA80CA90DE849600BE8C3D0
:100983009508F8E99509F98004A80AA90B740F12D0
:1009930003F8E8F0A3E9020C5174441203F8120EB1
:1009A30007F8A3E0F9E8FAE9FB74031203F812125B
:1009B30093A3E4F0A3F074441203F8120E1312038A
:1009C300F81212A690026F78081202A2740312039F
:1009D300F8780812028F741C12040274091203F8C7
:1009E3001212A97978020BF1741B1203F8E0F87460
:1009F3006C68600A7471686005746A687013744483
:100A03001203F8120DFB1203F8120E411202A28018
:100A13001274441203F8120E211203F8120E62F537
:100A23000AF50B74031203F878081202B1741B124F
:100A330003F8E0F87468686029746268701A7403D4
:100A43001203F878081202A274031203F8E50812DD
:100A5300128BA3F0A3F080237474686005747A6822
:100A6300701974031203F878081202A2A808A909DE
:100A7300E4FAFB74031203F81202D874191203F890
:100A8300E054087003020BDA74031203F81202CC69
:100A9300E8494A4B7003020BDA7420450C64786012
:100AA30003020BDA740D1203F8121248741C1203BA
:100AB300F8120D817430F0E8240108500109240173
:100AC300FAE439FB740D1203F8121293741C120327
:100AD300F8120D81E50C020BD9741B1203F8E02404
:100AE3009E601624FA602724FE605724FE60532478
:100AF300F8606224FA603B805C74441203F8120EBF
:100B0300211203F8120E4A3395E0F509805C744410
:100B13001203F8120E211203F812129088828983AD
:100B23001212483395E0FAFB880889098A0A8B0B6D
:100B3300803C74441203F8120E211203F8120E6261
:100B4300802874441203F8120DFB1203F8120E41AD
:100B53001202A2801974441203F8120E211203F830
:100B6300120E4AA3E0F5093395E0F50AF50B740379
:100B73001203F878081202B190027378081202A2E5
:100B830074031203F878081201D45011740D120380
:100B9300F8741C120402120DE8742D8030741912BB
:100BA30003F8E0F854026011740D1203F8741C1278
:100BB3000402120DE8742B8014E8A2E05019740D9E
:100BC3001203F8741C120402120DE87420F0740D61
:100BD3001203F8121303F0740D1203F8741C1204B9
:100BE30002120DF074091203F81212A9A90C74036E
:100BF30012040A1201B6805774441203F8120E0746
:100C0300C0E0741C1203F8D0E0F074441203F8122D
:100C13000E131203F812124EE8F0A3E9F0740D124A
:100C230003F874018025741C1203F87425F0740D05
:100C33001203F8740112128BE50C6013741D120376
:100C4300F8E50CF0740D1203F87402F0A3E4F074E9
:100C5300171203F8C082C083740D1203F8121248EE
:100C6300D083D082E0C398FAA3E099FB74111203F6
:100C7300F8120DAAFAEB99FB740F1203F8120DAADE
:100C8300F508EB99F50974191203F8E0540470267A
:100C9300780812058979207405120412740212036C
:100CA300F812125F1201B074021203C28B0BEA45F1
:100CB3000B7003020D73740D1203F812059E741E5C
:100CC300120402880A890B780A1205897407120430
:100CD3001274041203F812125F1201C27404120395
:100CE300C28B0BEA450B6003020D7374111203F8F8
:100CF30012059E7930740512041274021203F8125D
:100D0300125F1201B074021203C28B0BEA450B602F
:100D13005F740F1203F812059E740B1203F8120589
:100D23009E740712041274041203F812125F120164
:100D3300C274041203C28B0BEA450B70337419128D
:100D430003F8E0540470030206E778081205897972
:100D530020740512041274021203F812125F1201B6
:100D6300B074021203C28B09EA450960030206E765
:100D73007AFF7BFF74341203C27F06020488E58284
:100D830028F582E58339F58322EA75F00AA4FAADE2
:100D9300F075F00AEBA42DFBEA2CFAE43BFBEA2402
:100DA300D0FAEB34FFFB22E0F8A3E0F9EAC3982280
:100DB3008E828F83E0FC74D02CC3940A22E0FAA3C2
:100DC300E0FB74FF6A22120DE3FAA3E0F5838A8243
:100DD300E022120DE32402FAA3E03400FB74442260
:100DE300121256E022120DF088828983228909E0CB
:100DF30028F8A3E03509F922120E2D2404FAE43968
:100E0300FB744422121269F8A3E0F5838882E0227E
:100E13001212692402F8A3E03400F9744422120E7A
:100E23002D2402FAE439FB74442212126DF8A3E074
:100E3300F9E822F08E828F83A3AE82AF832212124F
:100E430099120E58780822120E4E2212129D120E7B
:100E530058E0F50822EAF0A3EBF088828983221296
:100E63000E4EA3E0F509E42274F012041C74FF1281
:100E730003ACE9851082851183F08A0E8B0F8C0AEF
:100E83008D0B7E007F0074111203F8E0F508A3E0D8
:100E9300F50980050EEE70010FC3EE9508EF950975
:100EA300A2D265D0335034750C01750D00780C1245
:100EB30005897402120402880C890D780C120589C5
:100EC300AC0AAD0BAA0EAB0F1201C274041203C21B
:100ED3008B0DEA450D60BD7A0080027A017B0074B8
:100EE300011203C27F0802048874F012041C74ED1B
:100EF3001203AC74031203F8121293E9851082856E
:100F03001183F074031203F8E0F8A3E0C82408F592
:100F130082E438F58312124874091203F81212A9F5
:100F2300851082851183E0646F700974051203F8DC
:100F330074088017E044206478600974051203F88C
:100F4300740A800774051203F8741012128B0412CA
:100F530003F8741812128B74031203F812123B78FD
:100F6300081202A2740B1203F878081202B185105A
:100F730082851183E064646005E0646970239002F4
:100F83007378081201E94019740B1203F8780812F8
:100F930002A2780812027E740B1203F87808120278
:100FA300B174031203F8E02406F8A3E03400F974E3
:100FB300111203F81212A974031203F8E02416F8AD
:100FC300A3E03400F974071203F81212A974031290
:100FD30003F8E02412F8A3E03400F9740F1203F8C5
:100FE3001212A9740B1203F81202CCE8494A4B708F
:100FF30047740F1203F8121265F8A3E0F9E8497079
:101003003774051203F8E0640860030211167407CD
:101013001203F8121272700302111674011203F80C
:10102300741712128B74091203F8E0F8A3E0C824B2
:1010330017F582E43802111174011203F8E024FF5A
:10104300FAA3E034FFFB74011203F8121293740B3A
:101053001203F8780C1202A274051203F812127824
:1010630012020FE5082430F8C3943A400B8510822E
:10107300851183E024AF28F874091203F8E02AFAF3
:10108300A3E03BFBE88A828B83F0740B1203F878AE
:101093000C1202A274051203F812127812020F74D2
:1010A3000B1203F8780C1202B1740B1203F812023C
:1010B300C0EC4D4E4F601774111203F812123BEA45
:1010C300F8EBF9C3E098A3E099500302103B7405D1
:1010D3001203F8E06408703B74071203F8121272EB
:1010E30060318A828B83E06430602874011203F8D4
:1010F300E024FFF0A3E034FFF074011203F81212AE
:101103004874091203F8E028FAA3E0398A82F583C8
:101113007430F074011203F81212487418C398F86B
:10112300E499F974031203F8E0FAA3E0CA240CF576
:1011330082E43AF5831212A974011203F812125FC2
:1011430074091203F8E02AFAA3E03BFB74111203BB
:10115300F8121290740F1203F812124E121236FD87
:1011630074031203F8E0240EFAA3E03400FBC3E88F
:101173009CE99DA2D265D033501BECC398F8ED993E
:10118300F98A828B831212A974071203F81212656B
:1011930054EF021226C3ED12122E400302122774DB
:1011A300071203F8121236F5838C82E0541464108C
:1011B300707274031203F8121236CC2414F582E40D
:1011C3003CF583C082C08374031203F8121236CC39
:1011D300240AF582E43CF583121236FDD083D082D3
:1011E300E0C39CFEA3E09DFF8A828B83121236FD2F
:1011F300EEC39CFCEF9DFDECC398F8ED99F97401E7
:101203001203F81212A974011203F8C3E09401A3A4
:10121300E012122E400E74011203F8E08A828B83CF
:10122300F0A3E9F07413020EE4C3EB9400A2D265B9
:10123300D03322E0FCA3E02212123F22E0F8A3E025
:10124300F583888222E0F8A3E0F9221212522212D7
:10125300125622E0FAA3E0F5838A8222E0FAA3E0A1
:10126300FB221212692212126D2212123FE0221285
:101273001269540822E0F508A3E0F5093395E0F577
:101283000AF50B780C790822F0A3E4F022121299E4
:10129300EAF0A3EBF02212129D22E0FCA3E0F58317
:1012A3008C8222121252E8F0A3E9F02274F21204A3
:1012B3001C8A0C8B0D8C088D09EC2404FEE4350983
:1012C300FF8E828F8312125F850C82850D83120439
:1012D3001A8A0C8B0DA80CA90D8E828F831212A96A
:1012E300E8496015E5082410F582E43509F5831211
:1012F3001303F07A007B0080047AFF7BFF020D7CEE
:10130300E02401F0A3E034002274F012041C8A0EDE
:101313008B0F8C0A8D0B7A007B0074101203F8E09C
:10132300FEA3E0FF74121203F8E0F508A3E08013B4
:101333008E828F83A3AE82AF83E50824FFF508E591
:101343000934FFF509E508450960168E828F83E0AD
:10135300F9AC0AAD0BAA0EAB0F1201BC12122C5042
:10136300CF020EE7C082C0839002007401F0A3E4B1
:10137300121387121387121390121390F0D083D095
:1013830082020085F0A3F0A3F0A3F0A322F0A3044C
:10139300F0A3E4F0A304F0A3E422C082C08343FEDD
:1013A3000153F4FE43FE0453F4FB43FE0853F4F7E6
:1013B30043FE1053F4EF53FDFE53F3FE538FFE43EE
:1013C300F72053FE7F53F47F53F67F43F740C290D9
:1013D3007A647B00790112010ED290C2927A647B07
:1013E30000790112010ED292C2937A647B007901D3
:1013F30012010ED293C2947A647B00790112010E1A
:10140300D29402138074F412041C90020012151F6C
:101413007009D290D292D293021508740C1203F879
:1014230078081202A212150F400512151C701EEC4B
:101433004D700890021012151F7012900243780825
:101443001201E9401090020C12151F60089002026D
:1014530012151F6004C2908002D29012150F40052E
:1014630012151C701EEC4D700890021012151F709F
:101473001290024378081201E9501090020C1215E1
:101483001F600890020412151F6004C2928002D2EA
:101493009274141203F8E0FCA3E0FD12150F40054B
:1014A30012151C701EEC4D700890021012151F705F
:1014B3001290024378081201E9501090020C1215A1
:1014C3001F600890020612151F6004C2938002D2A7
:1014D3009312150F400512151C701EEC4D700890E9
:1014E300021012151F701290024378081201E9408E
:1014F3001090020C12151F600890020812151F604D
:1015030004C2948002D2947F04020488C3EA9453F1
:10151300EB9400A2D265D0332290020AE0F8A3E054
:10152300F9E8492274291203AC120150790212011D
:101533006212012612011412015653C6BFE59EA280
:10154300E640FA53C6B874021203F8E4F0A3F08538
:101553001082851183F0A3F0F50EF50FFEFF02163E
:101563004885108285118312168CF074021203F8D9
:1015730012169540028F0E851082851183121695DF
:1015830040027E00740B1203F878081202A2900244
:101593001012059E90020E12059E90020C12059EDB
:1015A30090020A12059E90020812059E90020612EE
:1015B300059E90020412059E90020212059E90025F
:1015C3000012059E8E0C8F0D780C120589780E1271
:1015D3000589780812058574211203F812059A7497
:1015E300221203F812059E7C1E7D02742F12040A38
:1015F30012019874201203C2740F12040A1201A478
:101603008A0C8B0DAC0CAD0D740F12040A12016819
:101613008E0C8F0D780C1205897808120585740DD0
:101623001203F812059AAC0EAD0F740E1203F8E014
:10163300FAA3E0FB12015C740A1203C27AE87B038B
:10164300790112010E12010274041203F8EAF0A3E5
:10165300EBF0740612040A12011AA280500D750EE3
:101663000174021203F8E4F0A3800874021203F871
:1016730012168CF0A29740030215647E0185108236
:10168300851183E4F0A302156DE02401F0A3E03497
:101693000022C3E0940AA3E09400A2D265D03322CF
:1016A3001217B002008574F412041C74F71203AC11
:1016B3008A0A8B0B900212AC10AD1174091202F15D
:1016C300C2867A1EFB790112010ED2867A207B0034
:1016D30012010853FDBF53F3BF538FBF43F720A23B
:1016E3008650030217877E2E7F04A28640051217B9
:1016F300B970F7EE4F70030217877E2E7F047A507E
:101703007B00120108A28650051217B970F7EE4F3D
:101713006072120120E9F509120120E9FF1201208C
:10172300E9F508120120E9FE120120E9FAE5092F83
:10173300F8E43400F9AC08E82CF8E439F9E82EF8B9
:10174300E439F9E86A49703CE4041203F8EC12172F
:10175300A774051203F8E5091217A774EC2509C34A
:10176300944CEC500DC3943350047401800F74F205
:10177300800BC39433500474F1800274F385108298
:10178300851183F01217B0851082851183AC0AADE1
:101793000BECFAEDFB74091202F174091203C27F18
:1017A30004020488F0A3E4F0A3F0A3F02243FD4075
:1017B30053F3BFD28622EEF8EFF9E824FF1EE93493
:1017C300FFFFE8492274F712041C7E007F0878E6C5
:1017D3007914A286400512181470F7E84960287A34
:1017E300327B00120108EEC333F8A2865020740145
:1017F30048FE782E7904A286500512181470F7E873
:101803004960041FEF70C7EEF97F01020488FE8070
:10181300F2E8FAE9FBEA24FF18EB34FFF9EA4B227A
:1018230053F37F53F3FD43FD8043FD02020085C064
:1018330082C08343FD80D287D2817A047B00120168
:1018430008C2877A047B00120108C281D083D08248
:10185300020085C082C08343FD80C287C2817A04AF
:101863007B00120108D2817A047B00120108D2871F
:1018730080DAC082C08353FD7FD2877A027B001255
:101883000108C2817A027B00120108D28174FBA293
:101893008750071470F979018004C281790080AC04
:1018A30074F712041CE943FD80C2816004D287806F
:1018B30002C2877A027B00120108D2817A027B007E
:1018C300120108C2817F0102048874F712041CE923
:1018D300FF43FD80C2817E08EFA2E75004D28780D8
:1018E30002C287D2817A027B00120108C2817A0286
:1018F3007B00120108EFC333FF1EEE70DB80C6745A
:10190300F712041C53FD7F7F08C2817A027B001209
:101913000108D281EEC333FEA2875003D2E0FE7AE0
:10192300027B001201081FEF70DFC281EEF9809580
:1019330074F612041C74DF1203AC75F10075F33CEA
:1019430053FF3F438680900247AC10AD11742112C0
:1019530002F17800AA10AB118A828B83E0696013CD
:1019630008E5822403F58250020583E8C3940B50F3
:101973002980E9E875F003A4FAABF085108285119C
:1019830083E5822AFAE5833BFB8A828B83A3E042C9
:10199300C58A828B83A3A3E042C2C2E9C28BD2AAC7
:1019A300D2AF43864074211203C27F02020488C06F
:1019B30082C083EC4D6022ECF8EDF98A828B83E0E0
:1019C300F5C1A2E950FCC2E9A3AA82AB83E824FFD4
:1019D30018E934FFF9E84970E2D083D08202008528
:1019E30074F712041C12012C7946120144120138B7
:1019F300790112014412013812013212012C794685
:101A03001201441201387901120144120138120102
:101A13003212012C79461201441201387910120155
:101A2300441201381201327A2C7B0112010812018F
:101A33002C794712014412013812014AE9FE790058
:101A430012013EEEFF12014AE9FE790112013E1234
:101A53000132EE75F005A4FEA8F075F005EFA42899
:101A6300FFEEF8EFF97A067B0012034BE8FAE9FB85
:101A73007F0102048874F612041C74FC1203ACEA9E
:101A8300FEEBFF740E12040274021203F8E8F0A3D3
:101A9300E9F0851082851183EEF0A3EFF074021252
:101AA30004028808890978081205898C088D097849
:101AB3000812058974041204127ACE7B011201AA5A
:101AC30074041203C28A08851082851183E0FAA385
:101AD300E0F5838A82E4F0C3EB9400A2D265D033AD
:101AE3005004AA088012851082851183E0F8A3E0D0
:101AF300F9E8C39EFAE99FFB74041203C27F020252
:101B0300048878007900C3E89AE99B500E0000002E
:101B13000000000008E870EE0980EB02008574F60F
:101B230012041CE970087508177509028006750808
:101B33002E7509047E007F00C3EE9AEF9B501B7C39
:101B4300007D00C3EC9508ED950950070CEC70F38C
:101B53000D80F00EEE70E10F80DE7F0202048874C8
:101B6300F612041C74FF1203ACEAFEEBFF74FF6E63
:101B7300700374FF6F6033EE851082851183F075F7
:101B83000801750900780812058974021204127A93
:101B9300017B0012017A74021203C28A0874016580
:101BA300084B7006EEFAEFFB80047AFF7BFF7401AB
:101BB3001203C27F02020488C082C08374F8120336
:101BC300AC851082851183EAF0A3EBF07402120353
:101BD300F8ECF0A3EDF074081203F8E0F8A3E0F9D1
:101BE30074041203F8E8F0A3E9F0AA10AB11790B1F
:101BF30012016E74061203F8E0FAA3E0FB740812F4
:101C030003C2D083D08202008574F612041C74FED2
:101C13001203AC740C120402851082851183E8F060
:101C2300A3E9F0A810A91188088909780812058981
:101C33008A088B0978081205897C017D007AC87BA4
:101C4300011201AA74041203C274021203C27F02B6
:101C5300020488C082C083ECFC851082851183E076
:101C6300F8A3E0800CA3AA82AB83E824FF18E9342D
:101C7300FFF9E849600A8A828B83E06C70E780048D
:101C83007A007B00D083D082020085C082C0838A21
:101C9300828B83E0F8A3E0F5838882E9F08A828B64
:101CA30083E02401FCA3E03400FD8A828B83ECF003
:101CB300A3EDF0D083D08202008574F212041C8A53
:101CC300088B09890AAE0AEEFA7B001201928A0C8C
:101CD300EE650C4B7006AA08AB0980047A007B0002
:101CE3007F06020488C082C083EC4D70067A007BB5
:101CF30000801185108285118312059E1201747470
:101D0300021203C2D083D082020085C082C083EC5A
:101D1300F98005A3AA82AB838A828B83E0F8E96802
:101D23006007E870EE7A007B00D083D082020085E2
:101D330074F712041C74FE1203ACEAFEEBFF851069
:101D430082851183EEF0A3EFF0AA10AB1179011293
:101D5300016E80EAC082C0838A828B838001A3E004
:101D630070FCE582C39AFAE5839BFBD083D08202A1
:101D73000085C082C083120180D083D08202008597
:031D8300020085D6
:040000050000006D8A
:00000001FF
