:020000040000FA
:0300000002005D9E
:1000130002045C7582E675830C740012006F7A002B
:100023007B0290008D783679018015E493A3AD822D
:10003300AE838A828B83F0A3AA82AB838D828E8365
:10004300D8E9D9E775825E75830C740012006F7569
:10005300822875830D740012006F75D0007581BFFF
:10006300751000751102759F00020021C09FF59F56
:10007300E473D09F22D083D082C09FE493C0E07406
:100083000193C0E0740293F59F222325643F3F3F11
:100093003F0000063B01073B02083B0308D8040965
:1000A3003B0509D8060A3B070AD8080B3B090BD8BE
:1000B3000A0CD82D00250000000000FFFF000012ED
:1000C3000078790B00120078010C001200781D0CE7
:1000D30000120078BF0800120078CE0800120078E2
:1000E300F208001200781609001200784C09001279
:1000F3000078780900120078B50900120078F00939
:1001030000120078BE0A00120078360D0012007843
:10011300160000120078EC0A001200780A0D001293
:1001230000788E0400120078E00400120078B70C07
:1001330000C008C3E096F50808A3E096420808A3A8
:10014300E096420808A3E0964208A2D265D033E5C0
:10015300087001D3D00822E4CFC0E0E4CEC0E0E4CD
:10016300CDC0E0E4CCC0E075F020E626F608E63327
:10017300F608E633F608E633F6181818EC33FCED08
:1001830033FDEE33FEEF33FFC3EC9709ED9709EE32
:100193009709EF97191919400FFFEC97FC09ED9791
:1001A300FD09EE97FE191906D5F0BFECF709EDF737
:1001B30009EEF709EFF7191919D0E0FCD0E0FDD0EB
:1001C300E0FED0E0FF22E4C396F608E496F608E4E6
:1001D30096F608E496F622E056F608A3E056F608EB
:1001E300A3E056F608A3E056F622E0F608A3E0F6ED
:1001F30008A3E0F608A3E0F622E6F008A3E6F00879
:10020300A3E6F008A3E6F022E0F8A3E0F9A3E0FAFE
:10021300A3E0FB22CAC0E0E6F0A308DAFAD0E0FAD2
:1002230022CAC0E0E0A3C582CCC582C583CDC58305
:10023300F0A3C582CCC582C583CDC583DAE6D0E001
:10024300CA22251010AF08F510400C15118008F5CF
:100253001040021511D2AF2200C0D0251010AF08F4
:10026300F510500C05118008F51050020511D2AF9E
:10027300D0D0222510F58210AF08F510400C1511CF
:100283008008F51040021511D2AF85118322251085
:10029300F582E43511F583222510F8E43511F922AE
:1002A3002510FAE43511FB222510FCE43511FD225B
:1002B300E4732510C582C0E0E51134FFC583C0E0B7
:1002C300E510C3958224F810AF0885831185821049
:1002D3008008858311858210D2AFCEF0A3E520F08C
:1002E300A37808E608F0A3DEFAEFF0A3E58124FA89
:1002F300F8E608F0A3E608F0A3E608F0A30808E68A
:1003030008F0A3E608F0A315811581D0E0FED0E044
:10031300F8158115811581E8C0E0EEC0E022851152
:1003230083851082E0A3FEE0A3F5207808E0A3F61E
:1003330008DFFAE0A3FFE0A3C0E0E0A3C0E0E0A38E
:10034300C0E0E0A3C0E0E0A3C0E010AF08858210E6
:100353008583118008858210858311D2AFD083D025
:1003630082020075C0D02510C582C0E0E51134FFBC
:10037300C583C0E0E510C3958224F310AF088583DD
:10038300118582108008858311858210D2AFC8F051
:10039300A3E9F0A3EAF0A3EBF0A37908E709F0A33C
:1003A300D8FAECF0A3EDF0A3EEF0A3EFF0A3D0E0C6
:1003B300F0A3D0E0F0A3D0E0F0A3E520F0A3E5F0B4
:1003C300F0A322851183851082E0C0E0A3E0F9A3A6
:1003D300E0FAA3E0FBA37808E0F608A3DFFAE0FC69
:1003E300A3E0FDA3E0FEA3E0FFA3E0C0E0A3E0C021
:1003F300E0A3E0F5D0A3E0F520A3E0A3F5F010AF70
:10040300088583118582108008858311858210D227
:10041300AFD082D083D0E0F8D0E03274028000C045
:10042300E0F404120276D0E0120217227402800074
:10043300CCC0E0EDC0E0E510C39CCCAD1150011D74
:1004430010AF068C108D1180068C108D11D2AF1257
:100453000224D0E0FDD0E0FC22C0E074F212036776
:1004630074FF1202457E36C28BE5C1C0E08510825F
:10047300851183D0E0F07C017D00AA10AB1112013D
:1004830004740112025B7F010203C674F21202B507
:100493008A0A8B0BECFAEDFB740E120291E0FEA3B9
:1004A300E0FF7410120291E0F508A3E080228E822F
:1004B3008F83E0F9850A82850B831202B38E828FC4
:1004C30083A3AE82AF83E50824FFF508E50934FF73
:1004D300F509E508450970D67F0602032174F01279
:1004E30002B574E51202457401120291EAF0A3EB1E
:1004F300F0ECFEEDFF803D750A01750B00780A12E2
:10050300041E742D12029112042FEEFCEFFD7405EC
:10051300120291E0FAA3E0FB120122740412025BBF
:100523008A0A8B0BAE0AAF0B742B120291E508F00B
:10053300A3E509F0742B12029112086A700E7A0077
:100543007B00741B12025B7F08020321742B1202CF
:1005530091E02401F508A3E03400F50974256870DF
:1005630096850882850983E0851082851183F0745E
:100573002B1202911208B5742B120291E8F0A3E931
:1005830012086124DB700302084D24CD70030207B7
:10059300D724F5602F14700302062124FB607F2407
:1005A300FA70030207D71470030207EE24FD7003E9
:1005B30002081524FE70030207D724FD7003020707
:1005C300D7020537742D12029112087DC0E074051D
:1005D300120291D0E0F0742D1202911208AC1202B3
:1005E3009112089A750801750900780812041E749F
:1005F3000712029B88088909780812041EEEFCEF93
:10060300FD7405120291E0FAA3E0FB1201227404C7
:1006130012025B8A088B09AE08AF09020537742DF5
:1006230012029112087DF508A3E0F5093395E0F570
:100633000AF50B742D1202911208AC1202911208E2
:100643009A90022D78081201344034750C01750D0F
:1006530000780C12041E750C29750D02780C120417
:100663001EEEFCEFFD7405120291E0FAA3E0FB120B
:100673000122740412025B8A0C8B0DAE0CAF0D8544
:1006830010828511837464120861646F7009740C9D
:1006930012029174088017E0442064786009740C96
:1006A300120291740A8007740C1202917410F0A361
:1006B300E4F0A3F0A3F07403120291740BF0A3E42B
:1006C300F0740612029178081201FC8510828511DC
:1006D30083E06464702390022D780812013440197A
:1006E300740612029178081201ED78081201C97498
:1006F3000612029178081201FC7403120291E0249D
:10070300FFFAA3E034FFFB7403120291EAF0A3EBB8
:10071300F07406120291780C1201ED740C1202911E
:1007230078081201ED780C790812015AE508243093
:10073300F8C3943A400B851082851183E024AF28D7
:10074300F87410120291E5822AFAE5833BFB740ADE
:10075300120291EAF0A3EBF0E8C0E0740A120291EE
:10076300120870D0E0F07406120291780C1201EDB9
:10077300740C12029178081201ED780C79081201B9
:100783005A7406120291780C1201FC74061202913B
:1007930012020BE8494A4B60177403120291C3E03B
:1007A3009401A3E09400A2D265D03340030206FC77
:1007B3007403120291E0F8A3E0F9740BC398F508EF
:1007C300E499F509780812041E740C1202911204BC
:1007D3002F020600742D120291120889120291123F
:1007E30008AC12029112089F02068A742D1202911C
:1007F3001208891202911208AC12029112089A90FF
:10080300023178081201DA85108285118374780227
:10081300068A742D12029112086AA3E0F98882896C
:1008230083E0F508A3E0F509E82402F85001097410
:100833002D12029112089AAA08AB0912011C8A0A06
:100843008B0B780A12041E0205FB7508017509005B
:10085300780812041E75082B7509020205FBF08542
:100863001082851183E022120870E0F822120874C6
:1008730022E0F8A3E0F5838882221208812212087D
:1008830074120874E022120881F508A3E0F509E464
:10089300F50AF50B742D2212089FF022E0FAA3E06B
:1008A300F5838A82E8F0A3E9221208701208B5746E
:1008B3002D22E02402F8A3E03400F92253F37F53FE
:1008C300F3FD43FD8043FD02020075C082C08343F4
:1008D300FD80D287D2817A047B001200C8C2877A56
:1008E300047B001200C8C281D083D082020075C08D
:1008F30082C08343FD80C287C2817A047B001200D9
:10090300C8D2817A047B001200C8D287D083D082F8
:1009130002007574F71202B57E0053FD7FD2877A09
:10092300027B001200C8C2817A027B001200C8D287
:1009330081A287500B0EEEC394FB40F5790180042E
:10094300C28179007F0102032174F71202B5E9FE27
:1009530043FD80C281EE6004D2878002C2877A029F
:100963007B001200C8D2817A027B001200C8C281C8
:100973007F0102032174F71202B5E9FF43FD80C230
:10098300817E008019C287D2817A027B001200C85F
:10099300C2817A027B001200C8EFC333FF0EEEC39D
:1009A30094085009EFA2E750DCD28780DA7F010276
:1009B300032174F71202B553FD7F7F008020C281AB
:1009C3007A027B001200C8D281EEC333FEA28750A5
:1009D30005D3EE92E0FE7A027B001200C80FEFC34C
:1009E300940840DAC281EEF97F01020321C082C07C
:1009F3008374DF12024575F10075F33C53FF3F43E7
:100A03008680900208AC10AD117421120224780084
:100A1300800108E8C3940B4003020AA7E8FA7B00AD
:100A2300EA75F003A4CAACF075F000A42CFC75F0D1
:100A330003EBA42CFB851082851183E5822AF582C2
:100A4300E5833BF583E06970C9E8FA7B00EA75F05A
:100A530003A4CAACF075F000A42CFC75F003EBA45E
:100A63002CFB851082851183E5822AF582E5833B81
:100A7300F583A3E042C5E8FA7B00EA75F003A4CA54
:100A8300A8F075F000A428F875F003EBA428FB8503
:100A93001082851183E5822AF582E5833BF583A3E2
:100AA300A3E042C2C2E9C28BD2AAD2AF438640744A
:100AB3002112025BD083D082020075C082C083788A
:100AC3000079008016EA28F582EB39F583E0F5C159
:100AD300A2E950FCC2E908E8700109C3E89CE99D5A
:100AE30040E3D083D08202007574F61202B574FC21
:100AF300120245EAFEEBFF740E12029B740212020D
:100B030091E8F0A3E9F0851082851183EEF0A3EF5D
:100B1300F0740212029B88088909780812041E8C5B
:100B2300088D09780812041E74041202AB7A2E7B16
:100B330001120128740412025B8A08851082851150
:100B430083E0FAA3E0F5838A82E4F0C3EB9400A286
:100B5300D265D0335004AA08801285108285118390
:100B6300E0F8A3E0F9E8C39EFAE99FFB74041202DC
:100B73005B7F0202032174F71202B57E001200DAD2
:100B830079461200F21200E6E9FE79011200F21230
:100B930000E6E9FE1200E01200DA79461200F212D2
:100BA30000E6E9FE79011200F21200E6E9FE120006
:100BB300E01200DA79461200F21200E6E9FE79103B
:100BC3001200F21200E6E9FE1200E07A2C7B011219
:100BD30000C81200DA79471200F21200E6E9FE12A9
:100BE30000F8E9F50879001200EC1200F8E9FF7942
:100BF300011200EC1200E0EFF97F010203217800FB
:100C03007900C3E89AE99B500E0000000000000041
:100C130008E870EE0980EB02007574F61202B5E97C
:100C23007008750817750902800675082E75090482
:100C33007E007F00C3EE9AEF9B501B7C007D00C3B8
:100C4300EC9508ED950950070CEC70F30D80F00E50
:100C5300EE70E10F80DE7F02020321743812024539
:100C63001200D453C6BFE59EA2E640FA53C6B87934
:100C7300021200FE1200C2E9F50875090078081295
:100C8300041E7C007D0274021202A3120116740278
:100C930012025BAA10AB1112011C8A088B09AC0863
:100CA300AD09AA10AB111201047AA07B0F790112CE
:100CB30000CE80C0C082C0838A828B83E0F8A3E029
:100CC300F5838882E9F08A828B83E02401FCA3E028
:100CD3003400FD8A828B83ECF0A3EDF0D083D082C5
:100CE30002007574F71202B574FE120245EAFEEBB8
:100CF300FF851082851183EEF0A3EFF0AA10AB11EC
:100D0300790112010A80EAC082C0838A828B8380C0
:100D130001A3E070FCE582C39AFAE5839BFBD083D1
:100D2300D082020075C082C083120110D083D082AA
:060D3300020075020075CC
:040000050000005D9A
:00000001FF
